:020000020000FC
:1000000033C018C018C018C018C018C018C018C015
:1000100018C018C018C018C018C018C018C018C020
:1000200018C018C018C018C018C018C018C018C010
:1000300018C018C018951895189518951895189502
:100040001895189518951895189518951895189548
:100050001895189518951895189518951895189538
:10006000189518951895FFCF08E00EBF0FEF0DBF3C
:1000700078941FEF14B90E944F00289A0E944F00F5
:1000800028980E944F002D9A0E944F002D98F3CF80
:1000900012E428EC2A95F1F71A95D9F7089535E07E
:0A00A0000E9448003A95E1F7089528
:00000001FF
